:10000000E01F0010653200002133000021330000A2
:1000100000000000000000000000000000000000E0
:10002000000000000000000000000000213300007C
:1000300000000000000000002133000099110000C2
:100040003533000035330000353300003533000010
:100050003533000035330000353300003533000000
:1000600035330000353300003533000035330000F0
:10007000353300003533000035330000CD03000078
:1000800035330000353300003533000035330000D0
:1000900035330000110100000000000000000000E6
:1000A0003533000035330000353300000000000018
:1000B00035330000353300003533000035330000A0
:1000C00008B50C4A0C4B1A600722043B1A6000F07A
:1000D00005F900F0B5F8094A094B0A481A600A4ABE
:1000E0000A4B1A6000F042FA01F05EF801F05DF888
:1000F000FCE7C0469F8C000014E000E00502000011
:1001000034010010AC350000C901000030010010BE
:1001100010B5214B1B68DBB2DA073BD40722134032
:10012000022B18D01D49042B30D11D4B5A889B88B7
:100130000AE01C4804687F2B06DC1948013380184C
:10014000047201327F2002400868C407F1D41449C8
:100150004A808B80DDE7144A9389002B14D01289E2
:10016000102009E089180C7C0E4901320C6001381E
:100170007F210A40C0B2013B0B49002B01D000286F
:10018000F0D10A818B81C4E7D381C2E70B68054BAC
:100190001B68BEE710BDC0460880004014800040C8
:1001A00004000010008000408400001000B5044BE3
:1001B00001201B78002B01D1024B988800BDC0465E
:1001C0002C0100100400001000B50C4B187800281A
:1001D00002D000221A700FE0094B9A88002AF4D04E
:1001E0001A889918087A01327F210A401A8072B65B
:1001F0009A88013A9A8062B600BDC0462C01001070
:100200000400001000B50C4B9A897F2AFBD872B607
:10021000DA89002A0AD05A899918087401327F2194
:100220000A405A819A8901329A8103E00122DA81D7
:10023000024B186062B600BD8400001000800040D0
:1002400030B572B61B4B8022196852010A431A60FE
:1002500002229A61184A1949194C8323136003201A
:10026000833B85250B602060A5621060043A8430D2
:100270001060144C07389062D12222606260124AEA
:10028000146820431060114A138153819381D381F4
:100290000F4A13805380938007330B600D4BFF226E
:1002A000196812020A431A600B4B802292031A60EB
:1002B00062B630BD808004400C8000400480004065
:1002C00000800040A44004400080015084000010E1
:1002D0000400001014E400E000E100E070B5244CDC
:1002E0002448254A00232360036011681025294310
:1002F000116011686D19A9431160204A1025116819
:10030000161C29431160642101391C4D32680029F3
:10031000FAD12A6810318A432A606422013A31688E
:10032000002AFBD1154A11682022114201D1012374
:10033000E3E70133092BE0DD114B19680A431A602A
:100340007C3B196802229143196019680A431A60BC
:100350000C4B6C221A600C4A2D23136053600B4B1C
:10036000802212021A6001232360036070BDC04620
:10037000304004403440044000800050FC3F0050B6
:1003800080800440180000401000004000E100E0C0
:1003900000B5074A00231168994206D103708033E3
:1003A0001060DB0560221A600123181C00BDC046E6
:1003B00014010010034B6C221A60034B6C3A1A6054
:1003C0007047C046180000401401001038B5564B65
:1003D000564A1B68002B01D16C3314E0544908685D
:1003E0000006C00E01380A2800D990E003F01AF880
:1003F00006570D1624678F5C676F83009978490054
:100400004C4B1960282313608DE0987949490860A6
:1004100001219972D9780139D970F3E79888802140
:10042000C905002804D0302401380C6098800FE002
:10043000102008600E382DE0DD78002D0AD0013D37
:10044000DD70997A581884793A48013104609972BC
:1004500000201FE099895878002810D1002908D081
:10046000013999811969334C0D7801312560196181
:1004700010E080211020C90508600F380AE08024B0
:10048000E405002903D020212160281C02E010216E
:10049000216001200821116000283BD143E09978B8
:1004A000012349001943ABE79B89012B05D9802320
:1004B000DB05042119600823A5E70C23A3E78021AD
:1004C0001020C9050860082111600D3822E0194884
:1004D0001969006808700131196199890C20013986
:1004E00089B2012904D98020C005042404600820B1
:1004F0001060998117E00F48196900680870802121
:100500001020C9050860082111600F3802E06C2135
:1005100011600420044A0021187011605A698A424F
:1005200001D05B69984738BD1401001018000040E5
:10053000040000400800004010B5041C0A2802D145
:100540000D20FFF7F9FF074A1368002B03D01C703A
:100550000133136005E0044B1B68002B01D0201C05
:10056000984710BD180100103401001010B5041C8C
:1005700002E00134FFF7E0FF20780028F9D110BD38
:10058000F0B58BB0041C0E1C00E0039E2078002800
:1005900000D1D6E0013425286FD125780134302DE3
:1005A00004D1012125780191013407E00022019254
:1005B0002D2D03D1022325780193013400210291CE
:1005C00008E0029A93009B185B005D19303D02958C
:1005D000257801342B1C303B092BF2D94C2D01D04E
:1005E0006C2D05D10199042319432578019101341B
:1005F000002D00D1A5E02B1C602D01D9203BDBB2E2
:100600004F2B41D006D8432B2ED0442B09D0422B60
:1006100032D136E0552B04D0582B2BD0532B2BD175
:1006200001E00A2231E0331D03933668002500E023
:100630000135735D002BFBD102E02020FFF77CFF2A
:100640000199890704D40135029A6B1E9342F4D3B1
:10065000301CFFF78BFF03E02020FFF76DFF013513
:10066000029B9D42F8D390E7311D30780391FFF74C
:1006700063FF8AE7102208E0281CFFF75DFF03965E
:1006800083E70221049101E0082204920199321DBE
:10069000490702D50392376801E037680392002FBB
:1006A00006DA442B04D1019A3C3B1A437F42019263
:1006B0000026381C049902F00DFFC9B20591381CC0
:1006C000049902F0C3FE059B071C092B07D90723D9
:1006D000782D00D1203305995B18DBB20593059B7B
:1006E00006AA3033935501360F2E01D8002FE0D1E2
:1006F000019B1B0703D52D2306A98B550136019AB3
:100700002027D20700D51037351C02E0381CFFF730
:1007100013FF019B9B0704D4013502996B1E8B428A
:10072000F4D3013E06AA905DFFF706FF002EF8D134
:1007300003E02020FFF700FF0135029B9D42F8D324
:1007400023E70BB0F0BD70B5064D0C1C2E68286079
:1007500002E00134FFF7F0FE20780028F9D12E6086
:1007600070BDC046340100100FB407B504A901C91B
:100770000191FFF705FF03B008BC04B018470EB4A1
:1007800017B505A908C9074C01912060181CFFF78F
:10079000F7FE226800231370236017BC08BC03B067
:1007A0001847C046180100100EB433B5064C05A911
:1007B00008C925682060181C0191FFF7E1FE25603B
:1007C00033BC08BC03B018473401001070B5061CD8
:1007D0001C1C1D48151CFFF7C7FF022C1ED0042C43
:1007E00026D0012C2CD105E0315D1848FFF7BCFF65
:1007F000013400E00024AC42F6DB2020FFF79CFE31
:10080000002408E0305D031C203B5E2B00D92E2025
:10081000FFF792FE0134AC42F4DB11E0341C218876
:100820000B48013D0234FFF79FFF002DF7D107E091
:10083000341C02CC0748013DFFF796FF002DF8D18C
:100840000A20FFF779FE70BDC8350000CF350000E3
:10085000D5350000DB35000070B5124B051C18685B
:100860000E1C00281DD000240E4B1B689847002842
:1008700017D00D280FD0082803D1002C01D0013C3F
:1008800006E01F28F0DD731E9C42EDDA2855013486
:10089000FFF752FEE8E700230A202B55FFF74CFE36
:1008A000012070BD3001001038B5044C256820606F
:1008B000081C111CFFF7D0FF256038BD3001001067
:1008C00070B50022031C0A6001E00130186018684E
:1008D0000278202AF9D000252D2A03D1421C1A6063
:1008E00042780135302A1BD11A68501C18605278A2
:1008F000622A06D0782A09D1421C1A604278102454
:1009000014E0421C1A60427802240FE00120202AE1
:1009100029D9141C303C0138092C24D8082405E0BE
:10092000141C303C0020092C1DD80A24002011E0A2
:10093000602A01D9203AD2B2303AD2B2102A01D973
:10094000073AD2B2A2420DD2604310181A68561C60
:100950001E605278202AEBD8002D00D0404208605B
:10096000012000E0002070BDF0B589B06823041CB0
:10097000684683706A46683B93800122C27069466C
:100980008371427007328A8106AA04920593FFF7A9
:10099000FFFC6A461378002BFBD01078012843D166
:1009A00006ABDA7991063FD41D7807212A090A405F
:1009B0009600B21856000F2215407519E5715D7842
:1009C0002E09B700BE19760015407519A5719E78DD
:1009D000032537092F40B9008C46674416407F0035
:1009E000BE196671DE7807213140217119790E092F
:1009F0003540AE0075196D0011406918E1705979E4
:100A00000D090540AE00751911406D006918A170FF
:100A10009B79FA211A40C9001B0952189900CB187A
:100A20005B00D218228009E00123E370A370044B1D
:100A30000020E071A07160712071238009B0F0BDC9
:100A4000DB070000F0B5C6798BB0051C0A21301C0D
:100A500002F0FCFC0A210701301C02F03BFD07AC50
:100A60007F182770AE790A21301C02F0EFFC0A21B2
:100A70000701301C02F02EFD7F1867706E790A2185
:100A8000301C02F0E3FC0A210701301C02F022FDB9
:100A90007F18A7702A7907231340E370EE780A21A4
:100AA000301C02F0D3FC0A210701301C02F012FDB9
:100AB0007F182771AE780A21301C02F0C7FC0A218A
:100AC0000701301C02F006FD7F1867712D88134B5B
:100AD0000A21ED18281C02F007FD0A210601281C36
:100AE00002F058FD01A8682282700023673A8380D3
:100AF000C27007328371761843708281046143614A
:100B0000A671E371FFF744FC01AB1A78002AFBD011
:100B100018780BB0013843425841F0BD30F8FFFF60
:100B200000B5044B1860044A12685107FBD51868D9
:100B3000C0B200BD080004400C00044010B5064CD3
:100B4000FF20FFF7EDFFFF2802D0013C002CF7D17A
:100B5000FF384342584110BD400D030008B5034B18
:100B600010221A60FF20FFF7DBFF08BD4000035092
:100B700010B501E00C4B1B680C4B1A6804231340A2
:100B8000F8D10B4A072111600A49FF200B60FFF7DB
:100B9000C7FFFFF7D3FF041C0120002C02D1FFF791
:100BA000DDFF201C10BDC046080004400C000440BE
:100BB0000000044040000350F8B5274D041C0E1CF3
:100BC000FF20FFF7ADFFFF2803D1013D002DF7D136
:100BD00040E00025FE283DD120490F230B60204A2C
:100BE000204B103E13600D1C1360136013601360E4
:100BF00013601360136013E008684707FCD51068A2
:100C0000136080B2070A2770607008684707FCD538
:100C10001168043E89B2080A1360A070E1700434C0
:100C20001149002EE8D1261C0E3608684707FCD56E
:100C3000106880B2070A27706070B44201D0023495
:100C4000F3E7074803600B685807FCD513680723D0
:100C50002B600125281CF8BD400D03000000044056
:100C600008000440FFFF00000C000440F8B5041C1D
:100C70000D1CFFF763FF002849D0281CFFF750FF29
:100C80000120FD2D43D0224A0F23211C1360103177
:100C9000231C101C1D785A782D0215431D4A02335F
:100CA00015608B42F6D1231CFD341033FF341D78C0
:100CB00059782D020D4318490E687707FBD5166841
:100CC00015609D78DE782D0235430E687707FCD5D8
:100CD00016681560A34201D00433E8E700230C68CE
:100CE0006507FCD501331468082BF8D10B4C094B70
:100CF0001C600B685F07FCD5136807230360FF20A7
:100D0000FFF70EFF1F231840053843425841F8BD36
:100D100000000440080004400C000440FFFF0000F5
:100D200038B543B2041C0D1C002B07DA3720002114
:100D3000FFF7F6FF012835D87F231C400C2C07D085
:100D4000FFF70CFFFFF714FF031CFF20002B29D037
:100D500040202043FFF7E4FE280EFFF7E1FE280CB9
:100D6000C0B2FFF7DDFE280AC0B2FFF7D9FEE8B235
:100D7000FFF7D6FE9520002C03D00E38082C00D0AB
:100D80008638FFF7CDFE0C2C02D1FF20FFF7C8FEFE
:100D90000A24FF20FFF7C4FE030603D5013CE4B29A
:100DA000002CF6D138BD73B50122002800D09BE09D
:100DB0004E4B1A7802231A4200D095E04C4910227B
:100DC00008680A25104308604A490A604A4A802197
:100DD00010680901014311604849012208689043E5
:100DE000086008681043086090310A604449072091
:100DF0000B60103908604B6042490B6064390B602E
:100E0000414B1A601032043B1A60013DFF20EDB2E5
:100E1000FFF786FE002DF8D1281C291CFFF780FF64
:100E20002C1C061C01284FD1D52108204900FFF7B2
:100E300077FF01282ED1FF20FFF772FE01AB585536
:100E40000135042DF7D19A780024012A3CD1DB78B2
:100E5000AA2B39D12D4C013C002C35D08021A92062
:100E6000C905FFF75DFF051EF5D13A20291CFFF7E4
:100E700057FF2C1C002827D1041CFF20FFF750FE31
:100E800001AB18550134042CF7D11B785A061BD539
:100E9000083419E0A920291CFFF742FF012802D8D5
:100EA0000224A92501E0341C351C281C0021FFF771
:100EB00037FF0028F9D1802110308900FFF730FF7B
:100EC0004342584140420440114B1C70FFF746FE1C
:100ED000064B0122002C03D0197891430A1C01E033
:100EE00019780A431A701A78101C76BD0000001099
:100EF0000080035040000350808004400480044080
:100F000010000440B040044064400440102700003A
:100F10001C01001038B50124251C002816D10C4BEB
:100F20001C78211C29400FD13A30FFF7F9FE002828
:100F300000D02C1C0425FF20013DFFF7F1FD002D02
:100F4000F9D1044B10221A60014B1C70201C38BDD3
:100F5000000000104000035038B50D1C111C1C1E71
:100F60003AD0002838D11D4B03301B78DA0734D42F
:100F70001B4B1B781A0700D44902012C0ED11120FB
:100F8000FFF7CEFE002821D18021281C8900FFF721
:100F900013FE434258414042044017E01220FFF73D
:100FA000BFFE002812D18021281C8900FFF704FE13
:100FB000002807D0013CE4B2002C03D080239B0022
:100FC000ED18F0E70C200021FFF7AAFEFFF7C6FDA1
:100FD000201C441EA04100E0042038BD0000001089
:100FE0001C01001070B50D1C161C1C1E44D00028DE
:100FF00042D1224B03301B78DA073ED4204B1B78BA
:101000001A0700D47602012C0ED11820311CFFF7EC
:1010100087FE00282AD1281CFE21FFF727FE434225
:1010200058414042044021E00622134203D0972059
:10103000211CFFF775FE1920311CFFF771FE0028F7
:1010400014D1281CFC21FFF711FE002807D0013C19
:10105000E4B2002C03D080239B00ED18F1E70020C0
:10106000FD21FFF703FE002800D10124FFF776FDE4
:10107000201C441EA04100E0042070BD00000010B0
:101080001C010010F0B585B00E1C151C04240028AE
:1010900048D1264B013C19780123194042D1002E3A
:1010A00003D004249E423DD104E0FFF761FD444299
:1010B000444137E00920FFF733FE341C071E31D1CD
:1010C00068461021FFF778FD00282BD0684601788C
:1010D000C3798909027A01290AD13E310B40417A4C
:1010E0001B041202013352189A1892022A6018E067
:1010F0009B009209D2186B46997903236C461940DC
:1011000060798902013252180F210140A07AC0098A
:101110000918607A03405B00C9180739131C8B401B
:101120002B603C1C05B0201CF0BDC0460000001028
:1011300008B5011C0023084A05E010780132002898
:10114000FBD10133DBB28B4202D010780028F4D1FE
:101150000248FFF709FB08BDE2350000B336000086
:1011600007B56846FFF700FC6A46D078937800041C
:101170005B0518435379DB02184393795B011843ED
:10118000D3795B0818431388024A9B185B061843FF
:101190000EBDC04644F8FFFF024B1A6801321A60C8
:1011A0007047C0466C0300107047F0B5A9B03E20F0
:1011B000FFF7C2F9BD4C4021201CFFF74DFB2378FF
:1011C000621C2592662B38D0742B00D1FAE1642B77
:1011D00000D033E2637802342594642B08D0692B65
:1011E00000D02BE20020FFF7DEFD011CB04810E02C
:1011F00025A826A9FFF764FB002800D11EE20020E5
:10120000AC49269A0123FFF7A7FE041E04D0A84884
:10121000211CFFF7A9FA11E2A7482699FFF7A4FAC3
:10122000A448211C201801231022FFF7CFFA8023A5
:1012300010349B009C42F3D100E26078A31C633819
:101240002593142800D9F9E102F0F6F89800E90096
:101250009C00F801A901F8011500F801A0011C008B
:10126000F80180018500F801B001B100F801F80132
:1012700097017A0114019149002001F0E8F89BE1FF
:101280000131259125990B78202BF9D013A801F075
:10129000A0FC002800D08FE124902790051C1AACF8
:1012A00013A8211C01F0C7FC00283DD1637A002B54
:1012B0003AD0207AC20604D5249B442101332493DA
:1012C00005E0279A23680135D31827932D212D2275
:1012D000C30700D525322D23840700D51B332D27C6
:1012E000440700D526372D26840600D514361AACBF
:1012F000A088E4880097724F0196460AF619029674
:10130000C605360F03961F2630400490E00A05906C
:101310001A986405079068467130A40E08906948D1
:101320000694FFF721FABAE76748291C279A249BFD
:10133000FFF71AFA259827A922AA01F0C5FC002870
:1013400000D07BE1229B27999B7860485943CB0FC3
:10135000591849105DE725A827A9FFF7B1FA002819
:1013600002D16BE10131259125990B78202BF9D021
:10137000279A0AA8D2B201F07DF81DE10AA801F06F
:10138000CEFA19E125A827A9FFF79AFA002800D17B
:1013900054E10AA8279901F089FB041CFFF7C8FE55
:1013A000002C00D04AE10C9A4948111CC5E025A840
:1013B00027A9FFF785FA002800D13FE1454A00231D
:1013C000269313601EE0444A934205D980225201BD
:1013D0002392424A9B1802E09BB223930023279357
:1013E0000AA83449239A24AB01F0E1F8002802D07E
:1013F000FFF79EFE09E0269A249BD2182692239A94
:101400009A4202D1279B002BDDD1324B269C1968D2
:10141000201C249102F01AF8021C31488CE025A807
:1014200027A9FFF74DFA002800D107E10C9C1DE029
:101430000F2B03DD10222392103B02E09BB223937B
:1014400000231C4D27930AA8291C239A23AB01F0E3
:10145000AEF8002800D0AFE0239A002A00D1EDE0DA
:10146000211C281C0123FFF7B1F91034279B002B06
:10147000DED1E3E025A827A9FFF722FA002800D152
:10148000DCE025A826A9FFF71BFA002800D1D5E04B
:1014900000230849104C5918002201330A70A34256
:1014A000F7D923930B4B26921A6039E07013001082
:1014B000C036000070030010C7360000380100106D
:1014C000BC070000D3360000FF36000022370000C2
:1014D000373700006C030010FF0F000000F0FFFF23
:1014E0004A370000A34205D98022554F520123926A
:1014F000DB1902E09BB22393002327930AA85149EA
:10150000239A24AB01F0FBF8002802D0FFF710FE6D
:1015100009E0269A249BD2182692239A9A4202D155
:10152000279B002BDED1484B269C1968201C249158
:1015300001F08CFF021C4548211CFFF715F97DE0E6
:101540000AA801F038FC37E001302590259803788F
:10155000202BF9D0202101F0F7FE00286ED00023C7
:101560000370411C00E001310B78202BFBD0259843
:1015700001F0F6FD20E00130259025980378202B1E
:10158000F9D001F067FC17E0013025902598037829
:10159000202BF9D001F0BDFC0EE0013025902598FC
:1015A0000378202BF9D001F0CDF905E0201C402173
:1015B00001F0F2F9002802D0FFF7BAFD3EE024481E
:1015C000211C26E625A827A9FFF77AF9002825D0AF
:1015D000279B20AC238027A925A8FFF771F9279B1B
:1015E00027A9A37025A8FFF76BF9279B27A9E3700C
:1015F00025A8FFF765F9279B27A9637125A8FFF7A1
:101600005FF9279B25A8A37127A9FFF759F900289F
:1016100014D0279B201CE371FFF714FA20AC201C88
:10162000FFF7A2F960792188A278E3780090A07989
:101630000190E07902900748FFF796F829B0F0BDD5
:1016400000F0FFFF700300106C0300106B37000008
:10165000FB3600008F37000010B5002302E0CC5CA1
:10166000C4540133013AFAD210BD00B501E0017053
:101670000130013AFBD200BD0B0A8176090C0175DD
:10168000090AC3764175704710B503690A1C09320F
:10169000002B33D0436900201C5C202C07D0052C84
:1016A00000D1E0340130147001320828F4D1187AE6
:1016B00020280BD02E201070013226381C5C202CE4
:1016C00004D00130147001320B28F7D1D87A087297
:1016D000DC7F987F2406000420431C7F20435C7F2E
:1016E000240220430860587E1C7E0002204388802C
:1016F000DC7D987D2402231C0343CB8000231370E0
:1017000010BD08B50368021C0920002B0DD0197804
:1017100000290AD0D9889288914206D15878FFF7DB
:10172000F9FB0123184000D0032008BD10B5041CAC
:101730000A1C211C012340783431FFF70DFC0323E0
:10174000002837D11C4B1D4AE15C013BE35C0902D8
:10175000194309B2022391422CD1231C6D3319780D
:10176000013B1B7809061B041943231C6A331B78B1
:10177000134A1943231C6B331B781B0219430902BC
:10178000090A031C914215D0231C89331A78013BA6
:101790001B7812061B041343221C863212788734EE
:1017A00013432278120213431B02064A1B0A9B189A
:1017B0005A1E9341181C10BD3302000055AAFFFFAA
:1017C00046415400BABEABFFF0B5036889B01E783D
:1017D000171C303E092E05D85A783A2A02D1023316
:1017E000036001E0CF4B1E7800230B600B259E4267
:1017F00000D094E1CB4B01355C68002C00D18EE128
:101800000C602378002B0DD06078FFF783FBC107B5
:1018100008D43D1E00D182E1351C420700D47EE190
:101820000A257CE1002020706070FFF7BCFA0325D8
:10183000C30700D573E1002F03D00735410700D55A
:101840006DE1201C0021FFF771FF002701281AD14C
:10185000FB235B00E35C0D25BB4200D15FE1B24B93
:10186000201CE75CFF3B5B00E35C3F061B041F435F
:10187000FD235B00E35C1F43AC4BE35C1B021F4397
:10188000391CFFF753FF0125032800D147E10C3530
:10189000002800D043E1231C40331A78013B1B7819
:1018A00012021A43802312B29B009A4200D036E102
:1018B000231C4B331A78013B12021B78151C1D4365
:1018C000049511D1231C5B331A78013B1B78120657
:1018D0001B041A43231C58331B781A43231C593307
:1018E0001B781B021A4304920498231C2062443381
:1018F0001B780D255A1EE370012A00D90FE1221C26
:1019000041321178A170002900D108E14A1E11422C
:1019100000D004E1221C46321678013A12783602D1
:1019200016432681320700D0F9E0221C4832107895
:10193000013A00021278051C1543019511D1221CB1
:1019400057321078013A1278000612041043221C14
:10195000543212781043221C55321278120210436E
:101960000190221C43321278251C12020392423548
:101970002D78AC4660460D251043079000D1CEE08F
:10198000049A07985A4333091B180692D218019BF0
:101990000592934200D2C2E0981A01F057FD002848
:1019A00000D1BCE0624B0C3D0395984205D9614BD8
:1019B00083429B415B42023303930599039DCB19FC
:1019C000E362079B0230FA18E0616262032D17D1CF
:1019D0000A35002E00D0A2E0231C63331A78013BA5
:1019E0001B7812061B041343221C603212788000FD
:1019F0001343221C6132127812021343A36211E0D6
:101A00000D25002E00D18AE0069943005218A262EB
:101A1000039A022A01D1181C04E01B1801225B085A
:101A200010401818444B0499C018400A0D258142F3
:101A300075D301235B42039A23610023E360032AE9
:101A400060D16371231C65331A78013B1B78120245
:101A50001A43251CBA18343562616078291C0123A9
:101A6000FFF77AFA00284DD1344BE25C013BE35C8E
:101A700012021A43324B12B29A4243D1231C37331B
:101A80001A78013B1B7812061B041A432B781A4361
:101A9000231C35331B781B021A432A4B9A4231D13F
:101AA000294BE25C013BE35C12061B041A438623CC
:101AB0009B00E35C1A43254BE35C1B021A43244B57
:101AC0009A421FD1234BE25C013BE35C12061B04EC
:101AD000134388229200A25C13431F4AA25C1202A5
:101AE0001343E3601D4BE25C013BE35C12061B0405
:101AF000134387229200A25C1343194AA25C12028C
:101B0000134323610C256B46EB5C064A2370138953
:101B10000C3D01331381E38025632571A56109B074
:101B2000281CF0BD20010010FD010000FB01000099
:101B3000F50F0000F5FF0000FF0100003302000078
:101B400055AAFFFF525261411B020000190200001A
:101B50007272416123020000210200001F02000096
:101B60001D020000F7B5056B0F1C041C0022BD42CE
:101B70002FD0037993421FD034231B180193191CD3
:101B80002A1C40780123FFF72DFA0122002820D1DA
:101B9000226A636A2071D3189D420DD2E67809E06B
:101BA000236A6078ED1801992A1C0123FFF71AFABD
:101BB000013EF6B2012EF3D83A1E0AD0211C6078FD
:101BC00034310123FFF7C8F90122002801D127632E
:101BD000021C101CFEBD70B50021041CFFF7C2FFE3
:101BE000051C002853D12378032B49D16379002B9E
:101BF00046D0261C34368022301C291C92002563D6
:101C0000FFF733FD224B5522E25492180133E25480
:101C1000221C522335323370211C13700F33537042
:101C20003731412286200A708000722121541948E0
:101C30002154A931FF316254DB32FF32A3542369AE
:101C400087229200A354144A190AA154190C013294
:101C5000A1541B0E0132A354E36888229200A354BE
:101C60000E4A190AA154190C0132A1541B0E01325B
:101C7000A3546078311C62690123FFF7B3F96571E1
:101C8000002160780A1CFFF7FDF9431E984170BDE2
:101C900032020000190200001D02000021020000B3
:101CA00000B5031CC87E8A7E00021043032B05D1B9
:101CB0004B7D0A7D1B0213431B04184300BD00B576
:101CC000C2690239023A031C0020914203D298787B
:101CD000DB6A4843C01800BDF7B50125041C0E1C83
:101CE000A9425ED9C36999425BD20378022B2AD0FC
:101CF000032B3AD0AB4252D14F087F18436A790A7E
:101D0000C918FFF72FFF002849D1FB05DB0DE318A9
:101D100030331B797F190193636A790AC918201C33
:101D2000FFF720FF00283AD1FF05FF0DE4193034FA
:101D30002379019A1B0213432E4201D01D0930E082
:101D40001D052D0D2DE0436A090AC918FFF70AFF8A
:101D5000002824D13606F60DA3193036A4193033E5
:101D600065791B792D021D431BE0436AC909C91817
:101D7000FFF7F8FE002812D17606F60DA3193433CA
:101D80009D78DA785B782D041206A6191B0215439C
:101D900030361D4333791D432D012D0901E0012506
:101DA0006D42281CFEBD70B5041C0D1CE1808168CD
:101DB000022001293CD02368DA69914238D20029F7
:101DC00010D11A78032A02D1996A00290AD1002277
:101DD000E2601A890220AA422AD99B6A2A09D318EA
:101DE000236119E09E7836010DE02068FFF774FF4B
:101DF000011C431C19D0012819D92368DB699842BA
:101E000015D2AD1BADB2B542EFD2E1602068FFF74D
:101E100056FF2B091818206123680F221540343310
:101E20006D015D196561002002E0012000E00220E3
:101E300070BD10B5C188041CFFF7B5FF00280BD199
:101E400020682169FFF78EFE002805D16369E5222D
:101E50001A702368E43A1A7110BDF7B5041C0D1C02
:101E6000161C0220012973D9E369994270D22778A0
:101E700087423FD0032F4FD0012F67D14B085B180B
:101E8000590A0193636A201CC918FFF76BFE0028EA
:101E90005CD1019BDA05D20DF3B22F4008D0A11816
:101EA000303108790F2108401901031C0B43DBB2C4
:101EB000A21830321371019D012301352371636A29
:101EC000690AC918201CFFF74DFE00283ED1ED0518
:101ED000ED0D002F01D0360908E0631930331A796F
:101EE0000F239A43360A3340161C1E4365193035BA
:101EF0002E712BE0636A090AC918201CFFF732FE15
:101F0000002823D12D06ED0D6319303330351E71B5
:101F10006519360A6E7119E0636AC909C918201C6F
:101F2000FFF720FE002811D16D06ED0D2B1C30337C
:101F3000E318DA796519120912071643320A3035A7
:101F40002E715A71320C360E9A71DE710123237193
:101F5000FEBDF8B5041C0F1E06D1C668002E0DD0BC
:101F6000C3699E420AD20AE0391CFFF7B5FE012878
:101F70003ED9E3693E1C984201D23EE00126351C61
:101F8000E36901359D4202D3012E33D90225201C7D
:101F9000291CFFF7A1FE002809D001282DD0431CE1
:101FA0005A425341002B28D1B542E9D124E0201CEC
:101FB000291C124AFFF751FF002806D1002F04D038
:101FC000201C391C2A1CFFF748FF002809D123696F
:101FD000E560281C5A1C10D0013B2361012363716A
:101FE0000BE001384342584140420123184304E0CA
:101FF000012002E0002000E0181CF8BDFFFFFF0FE9
:10200000F7B50191C788041C0137BFB20426002F21
:102010006CD00369002B69D03A075CD1C1680133E9
:1020200003610068002903D10389BB4253D85DE0F6
:1020300083783A09013B1A424DD1FFF74DFE022643
:10204000051C012852D9013E431C4FD02068C369AA
:102050009D423AD3019A0336002A47D0E168FFF740
:1020600078FF0336051E41D0053E01283ED0013ED3
:10207000431C3BD020680021FFF774FD019000282D
:1020800034D120688022343001999200FFF7EDFAB4
:102090002668291C301CFFF712FE3063019E0DE0FC
:1020A00001221A7120680021FFF75CFD00281CD175
:1020B000236801361A6BF6B201321A6323689A78E4
:1020C000B242EDD81A6B961B1E63E5602068291C8E
:1020D000FFF7F5FD206123680F22E78017403433B6
:1020E0007F01DF196761002600E00126301CFEBD7C
:1020F000F0B50B7885B0041C0D1C5C2B01D02F2B88
:1021000002D10135002301E003689B69A3602B78AD
:102110001F2B07D8201C0021FFF745FE0023636119
:1021200009E101352F785C2FFBD02F3F7B425F41C7
:10213000002FF6D1A6692021301C0B22FFF795FA5B
:102140002B782E2B07D00820019702903A1C391CBF
:10215000A446009517E0321CEB5D0137022F04D82E
:102160002E2B02D113700132F6E75C2B04D02F2BFB
:1021700002D0202B00D9DBE02022ED19934200D8B9
:102180000432F272D9E0009C635C0131181C2F38D4
:1021900044426041002866D120249C4240410028EE
:1021A00061D15C2B68D0181C2E3844426041002855
:1021B00004D1029DAF42404100280CD02E2B00D00C
:1021C000B6E00298082800D0B2E09200233BD2B2D9
:1021D00008270293D7E758B2002801DA0320024308
:1021E000181C2030C0B200241C2585426441201CEC
:1021F0000394002804D1181C7F30C0B21E2815D8C3
:10220000009C605C041C803CE4B27C2C04D9041C5F
:10221000403C3E2C00D98BE0029C013CA74200D3FD
:1022200086E0F35501370131F0551AE04648009D2C
:1022300000E001300478002C02D09C42F9D177E014
:10224000181C41380095192802D80220024307E0E3
:10225000181C6138192803D80120203B0243DBB247
:10226000F35501378FE72020019100219842494121
:102270006446009D880002E0009D01916446002FA5
:1022800056D03378E52B01D1E03B3370029B082B0D
:1022900001D19200D2B203231340012B01D10F339D
:1022A00018430C231A40042A01D1043B1843019916
:1022B000F0726D1841E020682169FFF753FC002897
:1022C00016D162691378002B11D0D37A190709D47B
:1022D000A169031C01E00B2B0AD0D75CCE5C013353
:1022E000B742F8D0201C0021FFF78AFE29E0042025
:1022F000A369DB7A00280FD004281CD11A1C0240E5
:10230000990606D50438A0606061824200D109E7D1
:1023100011E0002A0ED00EE05A070CD46169CB7A86
:10232000D80607D523681878FFF7BAFCA060F9E64D
:10233000062000E0052005B0F0BD201C0021FFF7BD
:1023400032FD0028B7D0D3E7A837000070B50021D0
:10235000041CFFF728FD051E1ED120682169FFF728
:1023600001FC051E18D163691B78002B16D0E52BE4
:1023700014D0201C0121FFF743FEECE76669291CFD
:10238000301C2022FFF771F90B22301CA169FFF7E6
:1023900063F9236801221A71281C70BD2068216925
:1023A000FFF7E0FB051EF7D1E8E710B5041C042396
:1023B00013E02068FFF7D6FB002818D163691A786C
:1023C000002A13D0E52A02D0DB7A1A070DD5201C8B
:1023D0000021FFF715FE031E09D121690029E8D16C
:1023E000181E02D000222261181C10BD0420031CFC
:1023F000F8E770B5041C0D1C0220012926D9E369F9
:10240000994219D322E0201C291CFFF765FC061E07
:1024100017D0012E17D0721C17D0201C291C0022A7
:10242000FFF71BFD002811D123695A1C03D001338B
:10243000236101236371351CE3699D42E3D30020CE
:1024400004E0301C02E0022000E0012070BD00B575
:10245000031C0B20002B0AD105484268002A00D03B
:102460001370002901D000230B704160002000BDD3
:1024700020010010F0B58FB00923051C03910193D2
:10248000002800D190E0093B0360161C1F331E405A
:10249000321C1E3B9A4303A804A9FFF795F901904B
:1024A000002800D080E00BAB04A803990A93FFF743
:1024B0001FFE099C002802D1002C00D106301C23ED
:1024C0001E4245D000280AD0042802D104A8FFF7F4
:1024D0003DFF099C002866D108231E4307E0E27AED
:1024E000112307201A425ED1013072075BD43307F3
:1024F00039D5FEF735FE030A0027A073E373030CFA
:10250000000E23746074E77227776777A777E77701
:10251000049B211C1878FFF7C3FB391C0290201C78
:10252000FFF7AAF8049801230371029BBB421AD05B
:10253000191C076BFFF75DFF002834D1029B04983C
:10254000013BC360391CFFF70DFB00280BD02AE0CC
:10255000002828D1E37A0430DA0624D4B20702D561
:102560000330DA071FD4330701D520231E43049F0D
:10257000211C3B6B2C62EB61AE713878FFF790FB4E
:102580002861E27FA37F12061B041343227F1343BB
:10259000627F2F6012021343EB600023AB60AB61DC
:1025A000FB88AB8000E0019001980FB0F0BDF0B562
:1025B0001E1C002387B03360041C0F1C0192FFF720
:1025C000A0F8051E00D097E0A3795AB2002A00DADD
:1025D0008FE0D90700D48EE0E268A3680297019FDC
:1025E000D31A9F427FD91F1C7DE0A368DA05002A19
:1025F0004DD12068590A8278013A0A40D2B201923C
:10260000002A0BD1002B01D1206902E06169FFF79C
:1026100063FB01280AD9421C40D0606123686169CC
:10262000181C0393FFF74BFB002805D1A2798023E8
:102630005B421343A3715CE001997D0A0918049180
:10264000002D22D0039A019993786A189A4200D9F2
:102650005D1A039AEBB250780299049AFEF77CFC5B
:1026600000281BD121680B79002B0CD0086B049B30
:10267000C01AA84207D2029A400280188022343140
:102680009200FEF7E9FF6D0222E0049BA36120683F
:10269000A169A568FFF766FA002806D0A279802311
:1026A0005B421343A371012526E0ED058023ED0D68
:1026B0009B005B1B3D1C9F4200D91D1CA168236829
:1026C000C9053433C90D591802982A1CFEF7C4FFF6
:1026D000A36802995B19A360336849195B190291D9
:1026E00033607F1B00E00595002F00D07DE7059D3E
:1026F00002E0022500E0072507B0281CF0BDF0B578
:102700001F1C87B0002301913B60041C161CFEF7C0
:10271000F8FF051E00D0C7E0A279022351B20029BC
:1027200000DABEE01A4200D1BDE0E368291CF218CD
:102730009A4269414B421E400595A4E0A368DA0520
:10274000002A72D12068590A8278013A0A40D2B22E
:102750000292002A15D1002B07D1216900290BD143
:10276000FFF7F7FB011C206103E06169FFF7F1FB54
:10277000011C002900D189E0012914D04A1C5BD03A
:1027800061612068A369026B9A4204D10021FFF7BE
:10279000E9F9002850D123686169181C0393FFF7F9
:1027A0008EFA002806D1A27980235B421343A371DD
:1027B000022579E00299750A09180491002D25D0A7
:1027C000039B02999A786B18934200D9551A039A81
:1027D000EBB250780199049AFEF704FC02900028AD
:1027E0002AD12068049B016BC91AA9420CD2019A14
:1027F00049028918802292003430FEF72DFF694685
:1028000008222368515C19716D0232E0A268E36806
:102810009A4208D30398291CFFF7A4F900280BD18A
:102820002368049A1A63049BA3612068A169A568C0
:10283000FFF798F9002806D0A27980235B42134362
:10284000A371012530E0ED058023ED0D9B005B1B9E
:10285000351C9E4200D91D1CA0682368C005343376
:10286000C00D18182A1C0199FEF7F6FE23680122F4
:102870001A71A36801995B19A3603B6849195B1938
:102880000191761B3B60002E00D057E7A368E268F9
:10289000059D934200D9E360A37920221343A371DD
:1028A00002E01D1C00E0072507B0281CF0BDF8B5AC
:1028B000041CFEF726FF061E2FD1A37920273B42DA
:1028C0002BD02068E169FFF74DF9061E25D1256A56
:1028D000EB7A281C3B43EB72E3682B77A3891B0A36
:1028E0006B77E389AB77E37BEB772169FEF7C4FE77
:1028F000FEF736FC030AA875EB75030C000EAE74E8
:10290000EE742B766876A3790122BB43A37123680A
:102910001A712068FFF75FF9061C301CF8BD10B56E
:10292000041CFFF7C4FF002800D1206010BD00B5D3
:10293000031C0B20002B02D1014A181C137000BD90
:102940002001001030B58DB0019002A901A800222D
:10295000FEF73AFF041E1AD109AB02A801990893A9
:10296000FFF7C6FB041E0FD10799002903D1029B74
:10297000049A9A610BE0CB7ADA060BD5029D28788F
:10298000FFF78EF9A86102E0042C00D101340DB0EC
:10299000201C30BD0524FAE7F0B593B00022019069
:1029A0000F1C027002A901A8FEF70EFF051E77D1C9
:1029B0000FAB0893029B3C1C9B6904934CE002A85C
:1029C0000121FFF7F0F900284DD102A8FFF7EDFC37
:1029D000061E46D1029B07991878FFF761F9311C52
:1029E000049002A8FFF7DFF900283CD102A8FFF706
:1029F000DCFC061E0DD1029B07991878FFF750F9F1
:102A00000099814209D0311C02A8FFF7F9FA061E8D
:102A1000ECD00225042E24D128E002A809A9FEF753
:102A200033FE00E0013609AA93195B7A002BF9D135
:102A3000F31CB4469C4218D3231C05E0013E09A9AF
:102A40008819407A013BD054019A002EF6D1614694
:102A5000CB43E4182F231355049A0092002AAED1D9
:102A600004E0351C02E0051C00E01125019B002D4F
:102A700014D10D4A3A211278597030321A705A1C0A
:102A80000233BC4203D10B395170013306E0019A85
:102A9000125D01341A700133BC42F8D300221A705F
:102AA00013B0281CF0BDC04620010010F0B585B061
:102AB000041C0D1CFEF725FE061E00D086E0A27940
:102AC00053B2002B00DA80E0E3689D4202D99107FF
:102AD00000D41D1C0022A368281CA260954263D06C
:102AE0002268019297787F02002B14D0013B391C99
:102AF000681E029300F0AAFC391C0390029800F0B3
:102B0000A5FC039B834206D302997B420B40A36042
:102B1000ED1A61690CE02169002908D10198FFF7DD
:102B200018FA011C012837D0421C13D020616161C2
:102B3000081E39D020E0A3799A0705D52068FFF751
:102B400008FA011E04D11AE02068FFF7C5F8011C3D
:102B50004B1C06D1A27980235B421343A37101264B
:102B600034E0012918D92368DB69994214D2A3689B
:102B70006161DB19A360ED1BBD42DCD800E03D1CA8
:102B8000A368E8055B19C00DA36000280CD020687D
:102B9000FFF795F8002805D1A27980235B42134303
:102BA000A37112E06D0A4019A368DA05002A03D068
:102BB000A269904200D0A061E268934206D9E36026
:102BC000A37920221343A37100E0022605B0301C34
:102BD000F0BD30B587B0041C01910920002C28D02D
:102BE00001A8211C0022FEF7EFFD256800281ED158
:102BF00003ABA361201C0199FFF77AFA002810D1DA
:102C00006169002907D0CB7A0530DA060FD528781C
:102C1000FFF746F8A060EB88201CA3800021FFF797
:102C2000C2F8042802D0002803D000E005200023C9
:102C3000236007B030BD7FB5041C0E1CFEF761FD9C
:102C4000051E1FD1002E04D1201C291CFFF7ABF854
:102C500017E001ABA361201CFFF7A7FB042801D1FB
:102C6000256101E000280CD1201C311CFEF70CFD71
:102C7000201C0021FFF7C4F9042802D1002323619E
:102C800000E0051C04B0281C70BD30B58DB001906B
:102C90000D1C01A802A90022FEF796FD041E10D10A
:102CA00009AB02A801990893FFF722FA041E08D184
:102CB000079B002B04D002A8291CFEF7E5FC00E0CE
:102CC00006240DB0201C30BDF0B589B007900591E9
:102CD000141C111C07A80022FEF776FD2468061EAE
:102CE00066D1E7692369BA1E934202D8059803604A
:102CF0005EE021780491012911D10227051C201CD6
:102D0000391CFEF7E9FF421C45D0012845D043425B
:102D10004341ED18E36901379F42F0D340E0636A15
:102D2000021C0393051C031C002A0CD1201C0399D0
:102D3000FEF718FF002832D10398231C01308022AF
:102D400003903433920059780191187804990090D7
:102D500002290AD10198023301020098023A014384
:102D600009B2484241416D1811E0D97898780906B6
:102D70000004014300980433084384460198043A50
:102D80000102604601430901484241416D18013F7B
:102D9000002FC9D104E0012602E0022600E0061C53
:102DA00004992561032901D101236371059A1560F6
:102DB00009B0301CF0BDF8B5041C0925002837D037
:102DC000FEF79FFC051E33D1A37902275AB2002AD1
:102DD00003DB3B422ED107352AE03D1C28E02022B0
:102DE0001343E660A371002E06D120682169FFF726
:102DF00000FB2661051C14E020686169FEF76CFF8A
:102E0000061C431C1BD001281DD11AE06169104A21
:102E1000FFF723F8051E06D12068311CFFF7E9FAF9
:102E2000051C002D04D0A27980235B421343A371BB
:102E3000281CF8BDA668E268B242D0D8F8E70125A0
:102E4000F1E73D1CEFE72068C3699E42F0D2DDE761
:102E5000FFFFFF0F70B594B001900AA901A80122ED
:102E6000FEF7B2FC041E47D111AB0AA801991093DA
:102E7000FFF73EF9041E3FD1109BDB7A9A063ED540
:102E8000063439E0F37ADA0702D5072400E0062495
:102E90000A9B311C1878FEF703FF051C002C2BD170
:102EA000F37ADA062FD50234012825D903A80AA916
:102EB0001C22FEF7D1FB211C03A80595FEF773FF2A
:102EC000041E19D103A8FFF770FA041E06D00A9B4E
:102ED0009B699D4202D0042C15D00DE007240BE025
:102EE000002D05D00A98291CFFF783FA041E03D190
:102EF0000A98FEF770FE041C14B0201C70BD0F9ED3
:102F0000002EBFD1C3E70AA8FEF793FF041EE7D047
:102F1000F2E7F0B591B00590FEF722F906A900900E
:102F2000012205A8FEF750FC041E00D0A7E00DAB5F
:102F300006A805990C93FFF7DBF8041E0AD0042CB1
:102F400000D09CE00C9B2021DE7A02340E4000D0A1
:102F500095E097E0082492E00224012D72D0013C14
:102F60006A1C6FD097E0069C291C201CFEF7A7FE68
:102F7000261C34368022391C01909200301CFEF74A
:102F800074FB301C20210B22FEF76FFB2E233370C5
:102F9000231C3F3310221A70009F221CDF72BBB229
:102FA00069461B0A4B321370CB743B0C0293082208
:102FB000525C231C4C331A703B0E03930C22525C60
:102FC000231C4D331A70301C291CFEF755FB54236B
:102FD0001B19181C311C202200935534FEF73CFBB2
:102FE0002E212170069B08991A78032A05D19B6A25
:102FF000CB1A5A1E93415B4219400098FEF73CFBE6
:10300000069B9B7815E00698019A01230021026334
:103010000371FEF7A7FD011C041E13D1019B802242
:103020000133301C92000193FEF71FFB009B013B14
:10303000DBB2009300990029E5D106A8FFF786F9D5
:10304000041E04D00698291CFFF7D3F917E00B984B
:103050001023C37287756A46D27C0821C2756B46FD
:10306000CB5C0C2203766946515C4176291CFEF745
:1030700003FB069801230371FEF7ADFD041C11B09C
:10308000201CF0BD0698311CFEF763FF051E00D022
:1030900062E70724D6E70698311CFEF763FD071C9C
:1030A000041E00D15FE7CDE730B58DB001900D1C57
:1030B000141C01A802A90122FEF786FB002819D1E1
:1030C00009AB02A801990893FFF712F8002811D163
:1030D000089B0630DB7A9A060CD40DE027221440B8
:1030E000DA7AA2432C401443DC7202980123037164
:1030F000FEF771FD0DB030BD079B0620002BEDD112
:10310000F8E710B58CB001900C1C01A802A90122AF
:10311000FEF75AFB00281CD109AB02A801990893BD
:10312000FEF7E6FF002814D1089B0630DB7A9A06EA
:103130000FD410E0E2889A75E288120ADA75A28844
:103140001A76A288120A5A76029801230371FEF7B2
:1031500042FD0CB010BD079B0620002BEAD1F8E71A
:1031600070B59AB001900C1C01A80AA90122FEF7C3
:103170002BFB00286ED10A9B0AA80393019917AB79
:103180001093FEF7B5FF002864D1109B2026DB7A50
:10319000063033425ED15FE011AD0B31281C1522A1
:1031A000FEF75AFA03A80AA91C22FEF755FA03A84B
:1031B000211CFEF79DFF00284BD004284AD103A80C
:1031C000FFF7C4F8002845D1089C6946201C13224B
:1031D0000D304631FEF740FA2B781E43E6720A9D09
:1031E00001232B710C9A059B9A4229D0E37ADA06C7
:1031F00026D5211C2878FEF753FD011C281CFEF75C
:103200005EFD011C0220002924D0281CFEF7AAFC28
:103210000A9B00281ED11A1C553212782E2A0FD173
:103220001A78032A04D1011C9A6A0598904200D0AA
:103230000599181C5430FEF71FFA0A9B01221A71D7
:103240000AA8FEF7F6FD002804D10A98FEF7C3FC91
:1032500000E008201AB070BD0F99042000299BD10E
:10326000F8E7C0461E4B13221A601E481E4A002370
:1032700001211E4C03601360116025680326B543CD
:103280000D4325601A4C236063601A4B61608131E5
:103290001960194B80241968A1431960174B1968EC
:1032A00001231942FAD016490B600321016003394A
:1032B00011601360134A144B1A60144A144B01E056
:1032C00002CA02C313498B42FAD3134B01E0002216
:1032D00004C3124A9342FAD3FCF7F2FEFEE7C0465B
:1032E00050810440708004407480044010C003404A
:1032F0004080044008800440388204400C80044030
:10330000788004405F00010080800440B8370000EE
:10331000000000100400001004000010B0130010A2
:1033200000B5034B20211A688A431A60FEE7C046A5
:10333000FC3F015000B5034B01211A688A431A6013
:10334000FEE7C046FC3F0250F0B5C9B2031C00299D
:103350003CD0032210420ED00078041E35D0181C39
:10336000A14205D131E00378002B55D099422CD0F1
:1033700001301042F7D10E020E4333041E43274F93
:103380000368274ADC199C43051C144212D1734080
:10339000DC199C4314420DD1043004E07340DC1965
:1033A0009C43144206D1051C1C4F08C8DC199C43E1
:1033B0001442F3D02B78281C002B04D12CE00130D0
:1033C0000378002B28D09942F9D1F0BD0322104296
:1033D00009D00178002903D1F7E70378002BF4D056
:1033E00001301042F9D103680C4C011C1A190C4C25
:1033F0009A43224207D10430011C084D08C85A19CB
:103400009A432242F8D00B78081C002BDDD0013003
:103410000378002BFBD1D8E7181CD6E7FFFEFEFE91
:103420008080808002B4714649084900095C4900E7
:103430008E4402BC7047C04603B471464908400040
:103440004900095A49008E4403BC7047002934D012
:103450000123002210B488422CD301242407A14266
:1034600004D2814202D209011B01F8E7E400A14223
:1034700004D2814202D249005B00F8E7884201D3BE
:10348000401A1A434C08A04202D3001B5C08224396
:103490008C08A04202D3001B9C082243CC08A04207
:1034A00002D3001BDC082243002803D01B0901D0F3
:1034B0000909E3E7101C10BC7047002801D0002068
:1034C000C04307B4024802A14018029003BDC046A1
:1034D000D90000000029F0D003B5FFF7B9FF0EBCFA
:1034E0004243891A1847C046002941D010B4041C31
:1034F0004C40A44601230022002900D5494200285F
:1035000000D5404288422CD301242407A14204D292
:10351000814202D209011B01F8E7E400A14204D272
:10352000814202D249005B00F8E7884201D3401A89
:103530001A434C08A04202D3001B5C0822438C08AB
:10354000A04202D3001B9C082243CC08A04202D315
:10355000001BDC082243002803D01B0901D0090905
:10356000E3E7101C6446002C00D5404210BC7047B5
:10357000002806D003DB0020C043400801E0802083
:10358000000607B4024802A14018029003BDC046DD
:10359000190000000029EBD003B5FFF7A7FF0EBC10
:1035A0004243891A1847C0467047C0464D41525998
:1035B0002D4D422F4F422F53522074657374206D4E
:1035C0006F6E69746F720A002530386C58200020C5
:1035D0002530325800202530345800202530384C12
:1035E00058004F4B004449534B5F45525200494EDF
:1035F000545F455252004E4F545F5245414459006A
:103600004E4F5F46494C45004E4F5F504154480075
:10361000494E56414C49445F4E414D450044454E4C
:1036200049454400455849535400494E56414C4978
:10363000445F4F424A4543540057524954455F50F6
:10364000524F54454354454400494E56414C494419
:103650005F4452495645004E4F545F454E41424CDF
:103660004544004E4F5F46494C455F5359535445BE
:103670004D004D4B46535F41424F52544544005418
:10368000494D454F5554004C4F434B4544004E4F18
:10369000545F454E4F5547485F434F524500544F86
:1036A0004F5F4D414E595F4F50454E5F46494C4527
:1036B00053000072633D25752046525F25730A0052
:1036C00072633D25640A00536563746F723A256C1A
:1036D000750A002563256325632563256320257509
:1036E0002F253032752F2530327520253032753A2E
:1036F000253032752025396C75202025730A002568
:1037000034752046696C652873292C2531306C7519
:103710002062797465730A253475204469722873B0
:1037200029002C202531306C754B2062797465732B
:1037300020667265650A0066707472203D20256CF3
:1037400075283078256C58290A00256C7520627917
:103750007465732072656164207769746820256CD4
:1037600075206B422F7365632E0A00256C752062ED
:1037700079746573207772697474656E20776974E3
:103780006820256C75206B422F7365632E0A002517
:10379000752F25752F257520253032753A25303245
:1037A000753A253032750A00222A2B2C3A3B3C3DD3
:0737B0003E3F5B5D7C7F00E2
:0437B800010000000C
:00000001FF
